{
  "_format": "hh-sol-artifact-1",
  "contractName": "Rad",
  "sourceName": "contracts/Rad.sol",
  "abi": [
    {
      "inputs": [
        {
          "internalType": "address",
          "name": "_owner",
          "type": "address"
        },
        {
          "internalType": "address",
          "name": "market",
          "type": "address"
        }
      ],
      "stateMutability": "nonpayable",
      "type": "constructor"
    },
    {
      "anonymous": false,
      "inputs": [
        {
          "indexed": true,
          "internalType": "address",
          "name": "owner",
          "type": "address"
        },
        {
          "indexed": true,
          "internalType": "address",
          "name": "spender",
          "type": "address"
        },
        {
          "indexed": false,
          "internalType": "uint256",
          "name": "value",
          "type": "uint256"
        }
      ],
      "name": "Approval",
      "type": "event"
    },
    {
      "anonymous": false,
      "inputs": [
        {
          "indexed": true,
          "internalType": "address",
          "name": "previousOwner",
          "type": "address"
        },
        {
          "indexed": true,
          "internalType": "address",
          "name": "newOwner",
          "type": "address"
        }
      ],
      "name": "OwnershipTransferred",
      "type": "event"
    },
    {
      "anonymous": false,
      "inputs": [
        {
          "indexed": true,
          "internalType": "address",
          "name": "from",
          "type": "address"
        },
        {
          "indexed": true,
          "internalType": "address",
          "name": "to",
          "type": "address"
        },
        {
          "indexed": false,
          "internalType": "uint256",
          "name": "value",
          "type": "uint256"
        }
      ],
      "name": "Transfer",
      "type": "event"
    },
    {
      "inputs": [
        {
          "internalType": "address",
          "name": "owner",
          "type": "address"
        },
        {
          "internalType": "address",
          "name": "spender",
          "type": "address"
        }
      ],
      "name": "allowance",
      "outputs": [
        {
          "internalType": "uint256",
          "name": "",
          "type": "uint256"
        }
      ],
      "stateMutability": "view",
      "type": "function"
    },
    {
      "inputs": [
        {
          "internalType": "address",
          "name": "spender",
          "type": "address"
        },
        {
          "internalType": "uint256",
          "name": "amount",
          "type": "uint256"
        }
      ],
      "name": "approve",
      "outputs": [
        {
          "internalType": "bool",
          "name": "",
          "type": "bool"
        }
      ],
      "stateMutability": "nonpayable",
      "type": "function"
    },
    {
      "inputs": [
        {
          "internalType": "address",
          "name": "account",
          "type": "address"
        }
      ],
      "name": "balanceOf",
      "outputs": [
        {
          "internalType": "uint256",
          "name": "",
          "type": "uint256"
        }
      ],
      "stateMutability": "view",
      "type": "function"
    },
    {
      "inputs": [],
      "name": "decimals",
      "outputs": [
        {
          "internalType": "uint8",
          "name": "",
          "type": "uint8"
        }
      ],
      "stateMutability": "pure",
      "type": "function"
    },
    {
      "inputs": [
        {
          "internalType": "address",
          "name": "spender",
          "type": "address"
        },
        {
          "internalType": "uint256",
          "name": "subtractedValue",
          "type": "uint256"
        }
      ],
      "name": "decreaseAllowance",
      "outputs": [
        {
          "internalType": "bool",
          "name": "",
          "type": "bool"
        }
      ],
      "stateMutability": "nonpayable",
      "type": "function"
    },
    {
      "inputs": [
        {
          "internalType": "uint256",
          "name": "tAmount",
          "type": "uint256"
        }
      ],
      "name": "deliver",
      "outputs": [],
      "stateMutability": "nonpayable",
      "type": "function"
    },
    {
      "inputs": [
        {
          "internalType": "address",
          "name": "account",
          "type": "address"
        }
      ],
      "name": "excludeAccount",
      "outputs": [],
      "stateMutability": "nonpayable",
      "type": "function"
    },
    {
      "inputs": [
        {
          "internalType": "address",
          "name": "account",
          "type": "address"
        }
      ],
      "name": "includeAccount",
      "outputs": [],
      "stateMutability": "nonpayable",
      "type": "function"
    },
    {
      "inputs": [
        {
          "internalType": "address",
          "name": "spender",
          "type": "address"
        },
        {
          "internalType": "uint256",
          "name": "addedValue",
          "type": "uint256"
        }
      ],
      "name": "increaseAllowance",
      "outputs": [
        {
          "internalType": "bool",
          "name": "",
          "type": "bool"
        }
      ],
      "stateMutability": "nonpayable",
      "type": "function"
    },
    {
      "inputs": [
        {
          "internalType": "address",
          "name": "account",
          "type": "address"
        }
      ],
      "name": "isExcluded",
      "outputs": [
        {
          "internalType": "bool",
          "name": "",
          "type": "bool"
        }
      ],
      "stateMutability": "view",
      "type": "function"
    },
    {
      "inputs": [
        {
          "internalType": "address",
          "name": "account",
          "type": "address"
        }
      ],
      "name": "isWinWallet",
      "outputs": [
        {
          "internalType": "bool",
          "name": "",
          "type": "bool"
        }
      ],
      "stateMutability": "view",
      "type": "function"
    },
    {
      "inputs": [],
      "name": "name",
      "outputs": [
        {
          "internalType": "string",
          "name": "",
          "type": "string"
        }
      ],
      "stateMutability": "pure",
      "type": "function"
    },
    {
      "inputs": [],
      "name": "owner",
      "outputs": [
        {
          "internalType": "address",
          "name": "",
          "type": "address"
        }
      ],
      "stateMutability": "view",
      "type": "function"
    },
    {
      "inputs": [
        {
          "internalType": "uint256",
          "name": "tAmount",
          "type": "uint256"
        },
        {
          "internalType": "bool",
          "name": "deductTransferFee",
          "type": "bool"
        }
      ],
      "name": "reflectionFromToken",
      "outputs": [
        {
          "internalType": "uint256",
          "name": "",
          "type": "uint256"
        }
      ],
      "stateMutability": "view",
      "type": "function"
    },
    {
      "inputs": [],
      "name": "renounceOwnership",
      "outputs": [],
      "stateMutability": "nonpayable",
      "type": "function"
    },
    {
      "inputs": [
        {
          "internalType": "address",
          "name": "charity",
          "type": "address"
        },
        {
          "internalType": "address",
          "name": "Dev",
          "type": "address"
        },
        {
          "internalType": "address",
          "name": "Lottery",
          "type": "address"
        }
      ],
      "name": "setWinWallet",
      "outputs": [],
      "stateMutability": "nonpayable",
      "type": "function"
    },
    {
      "inputs": [],
      "name": "symbol",
      "outputs": [
        {
          "internalType": "string",
          "name": "",
          "type": "string"
        }
      ],
      "stateMutability": "pure",
      "type": "function"
    },
    {
      "inputs": [
        {
          "internalType": "uint256",
          "name": "rAmount",
          "type": "uint256"
        }
      ],
      "name": "tokenFromReflection",
      "outputs": [
        {
          "internalType": "uint256",
          "name": "",
          "type": "uint256"
        }
      ],
      "stateMutability": "view",
      "type": "function"
    },
    {
      "inputs": [],
      "name": "totalBurn",
      "outputs": [
        {
          "internalType": "uint256",
          "name": "",
          "type": "uint256"
        }
      ],
      "stateMutability": "view",
      "type": "function"
    },
    {
      "inputs": [],
      "name": "totalFees",
      "outputs": [
        {
          "internalType": "uint256",
          "name": "",
          "type": "uint256"
        }
      ],
      "stateMutability": "view",
      "type": "function"
    },
    {
      "inputs": [],
      "name": "totalSupply",
      "outputs": [
        {
          "internalType": "uint256",
          "name": "",
          "type": "uint256"
        }
      ],
      "stateMutability": "view",
      "type": "function"
    },
    {
      "inputs": [],
      "name": "totalWinWallet",
      "outputs": [
        {
          "internalType": "uint256",
          "name": "",
          "type": "uint256"
        }
      ],
      "stateMutability": "view",
      "type": "function"
    },
    {
      "inputs": [
        {
          "internalType": "address",
          "name": "recipient",
          "type": "address"
        },
        {
          "internalType": "uint256",
          "name": "amount",
          "type": "uint256"
        }
      ],
      "name": "transfer",
      "outputs": [
        {
          "internalType": "bool",
          "name": "",
          "type": "bool"
        }
      ],
      "stateMutability": "nonpayable",
      "type": "function"
    },
    {
      "inputs": [
        {
          "internalType": "address",
          "name": "sender",
          "type": "address"
        },
        {
          "internalType": "address",
          "name": "recipient",
          "type": "address"
        },
        {
          "internalType": "uint256",
          "name": "amount",
          "type": "uint256"
        }
      ],
      "name": "transferFrom",
      "outputs": [
        {
          "internalType": "bool",
          "name": "",
          "type": "bool"
        }
      ],
      "stateMutability": "nonpayable",
      "type": "function"
    },
    {
      "inputs": [
        {
          "internalType": "address",
          "name": "newOwner",
          "type": "address"
        }
      ],
      "name": "transferOwnership",
      "outputs": [],
      "stateMutability": "nonpayable",
      "type": "function"
    }
  ],
  "bytecode": "0x6080604052620000126009600a6200027c565b620000239064174876e80062000291565b600b8190556200003690600019620002b3565b6200004490600019620002d6565b600c55606460105560646011556101906012556010546013556011546014556012546015553480156200007657600080fd5b50604051620029f0380380620029f083398101604081905262000099916200030d565b600080546001600160a01b031916339081178255604051909182917f8be0079c531659141344cd1fd0a4f28419497f9722a3daafe3b4186f6b6457e0908290a350600c546001600160a01b03838116600081815260016020818152604080842096909655600880546001600160a01b031916958816958617905593825260058452848220805460ff19169091179055600b549351938452909290917fddf252ad1be2c89b69c2b068fc378daa952ba7f163c4a11628f55a4df523b3ef910160405180910390a3505062000345565b634e487b7160e01b600052601160045260246000fd5b600181815b80851115620001be578160001904821115620001a257620001a262000167565b80851615620001b057918102915b93841c939080029062000182565b509250929050565b600082620001d75750600162000276565b81620001e65750600062000276565b8160018114620001ff57600281146200020a576200022a565b600191505062000276565b60ff8411156200021e576200021e62000167565b50506001821b62000276565b5060208310610133831016604e8410600b84101617156200024f575081810a62000276565b6200025b83836200017d565b806000190482111562000272576200027262000167565b0290505b92915050565b60006200028a8383620001c6565b9392505050565b6000816000190483118215151615620002ae57620002ae62000167565b500290565b600082620002d157634e487b7160e01b600052601260045260246000fd5b500690565b600082821015620002eb57620002eb62000167565b500390565b80516001600160a01b03811681146200030857600080fd5b919050565b600080604083850312156200032157600080fd5b6200032c83620002f0565b91506200033c60208401620002f0565b90509250929050565b61269b80620003556000396000f3fe608060405234801561001057600080fd5b50600436106101735760003560e01c806370a08231116100de578063a9059cbb11610097578063f2cc0c1811610071578063f2cc0c1814610377578063f2fde38b1461038a578063f84354f11461039d578063ff3d9c7d146103b057600080fd5b8063a9059cbb146102ff578063cba0e99614610312578063dd62ed3e1461033e57600080fd5b806370a082311461026c578063715018a61461027f57806381e2dde1146102875780638da5cb5b146102b357806395d89b41146102ce578063a457c2d7146102ec57600080fd5b8063313ce56711610130578063313ce5671461021257806339509351146102215780633bd5d173146102345780633c9f861d146102495780634549b039146102515780635d8ef94d1461026457600080fd5b806306fdde0314610178578063095ea7b3146101af57806313114a9d146101d257806318160ddd146101e457806323b872dd146101ec5780632d838119146101ff575b600080fd5b6040805180820190915260098152682930b2103a37b5b2b760b91b60208201525b6040516101a69190612290565b60405180910390f35b6101c26101bd3660046122bf565b6103c3565b60405190151581526020016101a6565b600d545b6040519081526020016101a6565b600b546101d6565b6101c26101fa3660046122e9565b6103da565b6101d661020d366004612325565b610443565b604051600981526020016101a6565b6101c261022f3660046122bf565b6104cc565b610247610242366004612325565b610502565b005b600e546101d6565b6101d661025f36600461233e565b6105ee565b600f546101d6565b6101d661027a366004612373565b61067d565b6102476106dc565b6101c2610295366004612373565b6001600160a01b031660009081526005602052604090205460ff1690565b6000546040516001600160a01b0390911681526020016101a6565b604080518082019091526002815261149560f21b6020820152610199565b6101c26102fa3660046122bf565b610750565b6101c261030d3660046122bf565b61079f565b6101c2610320366004612373565b6001600160a01b031660009081526004602052604090205460ff1690565b6101d661034c36600461238e565b6001600160a01b03918216600090815260036020908152604080832093909416825291909152205490565b610247610385366004612373565b6107ac565b610247610398366004612373565b610977565b6102476103ab366004612373565b610a61565b6102476103be3660046123c1565b610c18565b60006103d0338484610fa3565b5060015b92915050565b60006103e78484846110c7565b610439843361043485604051806060016040528060288152602001612619602891396001600160a01b038a16600090815260036020908152604080832033845290915290205491906114b9565b610fa3565b5060019392505050565b6000600c548211156104af5760405162461bcd60e51b815260206004820152602a60248201527f416d6f756e74206d757374206265206c657373207468616e20746f74616c207260448201526965666c656374696f6e7360b01b60648201526084015b60405180910390fd5b60006104b96114f3565b90506104c58382611516565b9392505050565b3360008181526003602090815260408083206001600160a01b038716845290915281205490916103d09185906104349086611558565b3360008181526004602052604090205460ff16156105775760405162461bcd60e51b815260206004820152602c60248201527f4578636c75646564206164647265737365732063616e6e6f742063616c6c207460448201526b3434b990333ab731ba34b7b760a11b60648201526084016104a6565b6000610582836115b7565b5050506001600160a01b0386166000908152600160205260409020549394506105b09392508491505061163b565b6001600160a01b038316600090815260016020526040902055600c546105d6908261163b565b600c55600d546105e69084611558565b600d55505050565b6000600b548311156106425760405162461bcd60e51b815260206004820152601f60248201527f416d6f756e74206d757374206265206c657373207468616e20737570706c790060448201526064016104a6565b81610662576000610652846115b7565b509496506103d495505050505050565b600061066d846115b7565b509396506103d495505050505050565b6001600160a01b03811660009081526004602052604081205460ff16156106ba57506001600160a01b031660009081526002602052604090205490565b6001600160a01b0382166000908152600160205260409020546103d490610443565b6000546001600160a01b031633146107065760405162461bcd60e51b81526004016104a690612404565b600080546040516001600160a01b03909116907f8be0079c531659141344cd1fd0a4f28419497f9722a3daafe3b4186f6b6457e0908390a3600080546001600160a01b0319169055565b60006103d0338461043485604051806060016040528060258152602001612641602591393360009081526003602090815260408083206001600160a01b038d16845290915290205491906114b9565b60006103d03384846110c7565b6000546001600160a01b031633146107d65760405162461bcd60e51b81526004016104a690612404565b737a250d5630b4cf539739df2c5dacb4c659f2488d6001600160a01b038216141561084e5760405162461bcd60e51b815260206004820152602260248201527f57652063616e206e6f74206578636c75646520556e697377617020726f757465604482015261391760f11b60648201526084016104a6565b6001600160a01b03811660009081526004602052604090205460ff16156108b75760405162461bcd60e51b815260206004820152601b60248201527f4163636f756e7420697320616c7265616479206578636c75646564000000000060448201526064016104a6565b6001600160a01b03811660009081526001602052604090205415610911576001600160a01b0381166000908152600160205260409020546108f790610443565b6001600160a01b0382166000908152600260205260409020555b6001600160a01b03166000818152600460205260408120805460ff191660019081179091556006805491820181559091527ff652222313e28459528d920b65115c16c04f3efc82aaedc97be59f3f377c0d3f0180546001600160a01b0319169091179055565b6000546001600160a01b031633146109a15760405162461bcd60e51b81526004016104a690612404565b6001600160a01b038116610a065760405162461bcd60e51b815260206004820152602660248201527f4f776e61626c653a206e6577206f776e657220697320746865207a65726f206160448201526564647265737360d01b60648201526084016104a6565b600080546040516001600160a01b03808516939216917f8be0079c531659141344cd1fd0a4f28419497f9722a3daafe3b4186f6b6457e091a3600080546001600160a01b0319166001600160a01b0392909216919091179055565b6000546001600160a01b03163314610a8b5760405162461bcd60e51b81526004016104a690612404565b6001600160a01b03811660009081526004602052604090205460ff16610af35760405162461bcd60e51b815260206004820152601b60248201527f4163636f756e7420697320616c7265616479206578636c75646564000000000060448201526064016104a6565b60005b600654811015610c1457816001600160a01b031660068281548110610b1d57610b1d612439565b6000918252602090912001546001600160a01b03161415610c025760068054610b4890600190612465565b81548110610b5857610b58612439565b600091825260209091200154600680546001600160a01b039092169183908110610b8457610b84612439565b600091825260208083209190910180546001600160a01b0319166001600160a01b039485161790559184168152600282526040808220829055600490925220805460ff191690556006805480610bdc57610bdc61247c565b600082815260209020810160001990810180546001600160a01b03191690550190555050565b80610c0c81612492565b915050610af6565b5050565b6000546001600160a01b03163314610c425760405162461bcd60e51b81526004016104a690612404565b737a250d5630b4cf539739df2c5dacb4c659f2488d6001600160a01b0384161415610cca5760405162461bcd60e51b815260206004820152603260248201527f54686520556e697377617020726f757465722063616e206e6f74206265207468604482015271329031b430b934ba3c9030b1b1b7bab73a1760711b60648201526084016104a6565b737a250d5630b4cf539739df2c5dacb4c659f2488d6001600160a01b0383161415610d4e5760405162461bcd60e51b815260206004820152602e60248201527f54686520556e697377617020726f757465722063616e206e6f7420626520746860448201526d32902232bb1030b1b1b7bab73a1760911b60648201526084016104a6565b737a250d5630b4cf539739df2c5dacb4c659f2488d6001600160a01b0382161415610dd65760405162461bcd60e51b815260206004820152603260248201527f54686520556e697377617020726f757465722063616e206e6f7420626520746860448201527132902637ba3a32b93c9030b1b1b7bab73a1760711b60648201526084016104a6565b6001600160a01b03831660009081526005602052604090205460ff1615610e4a5760405162461bcd60e51b815260206004820152602260248201527f4163636f756e7420697320616c72656164792063686172697479206163636f756044820152611b9d60f21b60648201526084016104a6565b6001600160a01b03821660009081526005602052604090205460ff1615610eb35760405162461bcd60e51b815260206004820152601e60248201527f4163636f756e7420697320616c726561647920446576206163636f756e74000060448201526064016104a6565b6001600160a01b03811660009081526005602052604090205460ff1615610f275760405162461bcd60e51b815260206004820152602260248201527f4163636f756e7420697320616c7265616479204c6f7474657279206163636f756044820152611b9d60f21b60648201526084016104a6565b6001600160a01b039283166000818152600560205260408082208054600160ff19918216811790925595871680845282842080548816831790559490961680835291208054909416909417909255600780546001600160a01b031990811690931790556009805483169091179055600a80549091169091179055565b6001600160a01b0383166110055760405162461bcd60e51b8152602060048201526024808201527f42455032303a20617070726f76652066726f6d20746865207a65726f206164646044820152637265737360e01b60648201526084016104a6565b6001600160a01b0382166110665760405162461bcd60e51b815260206004820152602260248201527f42455032303a20617070726f766520746f20746865207a65726f206164647265604482015261737360f01b60648201526084016104a6565b6001600160a01b0383811660008181526003602090815260408083209487168084529482529182902085905590518481527f8c5be1e5ebec7d5bd14f71427d1e84f3dd0314c0f7b2291e5b200ac8c7c3b925910160405180910390a3505050565b6001600160a01b03831661112b5760405162461bcd60e51b815260206004820152602560248201527f42455032303a207472616e736665722066726f6d20746865207a65726f206164604482015264647265737360d81b60648201526084016104a6565b6001600160a01b03821661118d5760405162461bcd60e51b815260206004820152602360248201527f42455032303a207472616e7366657220746f20746865207a65726f206164647260448201526265737360e81b60648201526084016104a6565b600081116111ef5760405162461bcd60e51b815260206004820152602960248201527f5472616e7366657220616d6f756e74206d7573742062652067726561746572206044820152687468616e207a65726f60b81b60648201526084016104a6565b6001600160a01b03831660009081526005602052604090205460019060ff168061123157506001600160a01b03831660009081526005602052604090205460ff165b8061125457506001600160a01b03831660009081526004602052604090205460ff165b1561125d575060005b8061126a5761126a61167d565b6000546001600160a01b0385811691161480159061129657506000546001600160a01b03848116911614155b15611315576112a76009600a612591565b6112b59063c6aea15261259d565b8211156113155760405162461bcd60e51b815260206004820152602860248201527f5472616e7366657220616d6f756e74206578636565647320746865206d6178546044820152673c20b6b7bab73a1760c11b60648201526084016104a6565b6001600160a01b03841660009081526004602052604090205460ff16801561135657506001600160a01b03831660009081526004602052604090205460ff16155b1561136b576113668484846116c2565b611497565b6001600160a01b03841660009081526004602052604090205460ff161580156113ac57506001600160a01b03831660009081526004602052604090205460ff165b156113bc57611366848484611796565b6001600160a01b03841660009081526004602052604090205460ff161580156113fe57506001600160a01b03831660009081526004602052604090205460ff16155b1561143c576114316040518060400160405280600d81526020016c7468697320697320706c61636560981b8152506117f6565b61136684848461183c565b6001600160a01b03841660009081526004602052604090205460ff16801561147c57506001600160a01b03831660009081526004602052604090205460ff165b1561148c5761136684848461189b565b61149784848461183c565b806114b3576114b3601354601055601454601155601554601255565b50505050565b600081848411156114dd5760405162461bcd60e51b81526004016104a69190612290565b5060006114ea8486612465565b95945050505050565b60008060006115006118fc565b909250905061150f8282611516565b9250505090565b60006104c583836040518060400160405280601a81526020017f536166654d6174683a206469766973696f6e206279207a65726f000000000000815250611a7e565b60008061156583856125bc565b9050838110156104c55760405162461bcd60e51b815260206004820152601b60248201527f536166654d6174683a206164646974696f6e206f766572666c6f77000000000060448201526064016104a6565b6000806000806000806000806000806115d88b601054601154601254611aac565b92509250925060006115ec8c858585611b03565b905060006115f86114f3565b90506000806116088f8885611b1b565b91509150600061161b8383898988611b45565b929e50919c509a5091985093965091945092505050919395979092949650565b60006104c583836040518060400160405280601e81526020017f536166654d6174683a207375627472616374696f6e206f766572666c6f7700008152506114b9565b60105415801561168d5750601154155b80156116995750601254155b156116a057565b6010805460135560118054601455601280546015556000928390559082905555565b60006116cc6114f3565b905060008060008060008060006116e2896115b7565b965096509650965096509650965060006117058984611b8190919063ffffffff16565b90506000611713838b611b81565b90506117228d8d8d8c8c611c00565b61172c838e611ca4565b61173a878383888888611f58565b8b6001600160a01b03168d6001600160a01b03167fddf252ad1be2c89b69c2b068fc378daa952ba7f163c4a11628f55a4df523b3ef8860405161177f91815260200190565b60405180910390a350505050505050505050505050565b60006117a06114f3565b905060008060008060008060006117b6896115b7565b965096509650965096509650965060006117d98984611b8190919063ffffffff16565b905060006117e7838b611b81565b90506117228d8d888c8c611fc0565b6118398160405160240161180a9190612290565b60408051601f198184030181529190526020810180516001600160e01b031663104c13eb60e21b179052612048565b50565b60006118466114f3565b9050600080600080600080600061185c896115b7565b9650965096509650965096509650600061187f8984611b8190919063ffffffff16565b9050600061188d838b611b81565b90506117228d8d8b8b612069565b60006118a56114f3565b905060008060008060008060006118bb896115b7565b965096509650965096509650965060006118de8984611b8190919063ffffffff16565b905060006118ec838b611b81565b90506117228d8d8d8c8a8d612123565b600c54600b546000918291825b600654811015611a4e5782600160006006848154811061192b5761192b612439565b60009182526020808320909101546001600160a01b031683528201929092526040019020541180611996575081600260006006848154811061196f5761196f612439565b60009182526020808320909101546001600160a01b03168352820192909252604001902054115b156119ac57600c54600b54945094505050509091565b6119f260016000600684815481106119c6576119c6612439565b60009182526020808320909101546001600160a01b03168352820192909252604001902054849061163b565b9250611a3a6002600060068481548110611a0e57611a0e612439565b60009182526020808320909101546001600160a01b03168352820192909252604001902054839061163b565b915080611a4681612492565b915050611909565b50600b54600c54611a5e91611516565b821015611a7557600c54600b549350935050509091565b90939092509050565b60008183611a9f5760405162461bcd60e51b81526004016104a69190612290565b5060006114ea84866125d4565b6000808080611ac86064611ac281818c8c611b81565b90611516565b90506000611add6064611ac281818d8c611b81565b90506000611af26064611ac281818e8c611b81565b929a91995091975095505050505050565b60006114ea82611b158581898961163b565b9061163b565b60008080611b298685611b81565b90506000611b378686611b81565b919791965090945050505050565b600080611b528584611b81565b90506000611b608585611b81565b90506000611b7482611b1585818d8d61163b565b9998505050505050505050565b600082611b90575060006103d4565b6000611b9c838561259d565b905082611ba985836125d4565b146104c55760405162461bcd60e51b815260206004820152602160248201527f536166654d6174683a206d756c7469706c69636174696f6e206f766572666c6f6044820152607760f81b60648201526084016104a6565b6001600160a01b038516600090815260026020526040902054611c23908461163b565b6001600160a01b038616600090815260026020908152604080832093909355600190522054611c52908361163b565b6001600160a01b038087166000908152600160205260408082209390935590861681522054611c819082611558565b6001600160a01b0390941660009081526001602052604090209390935550505050565b6000611cae6114f3565b905060006004611cbe8584611b81565b611cc891906125d4565b9050611cfe60405180604001604052806012815260200171031bab93932b73a2bb4b72bb0b63632ba1d160751b815250826121fe565b600754600854600954600a546001600160a01b039384166000818152600160205260409020549094938416939283169290911690611d3c9086611558565b6001600160a01b038516600090815260016020526040902055611d82611d6360048a6125d4565b6001600160a01b03861660009081526002602052604090205490611558565b6001600160a01b03808616600090815260026020908152604080832094909455918616815260019091522054611db89086611558565b6001600160a01b038416600090815260016020526040902055611dfe611ddf60048a6125d4565b6001600160a01b03851660009081526002602052604090205490611558565b6001600160a01b03808516600090815260026020908152604080832094909455918516815260019091522054611e349086611558565b6001600160a01b038316600090815260016020526040902055611e7a611e5b60048a6125d4565b6001600160a01b03841660009081526002602052604090205490611558565b6001600160a01b03808416600090815260026020908152604080832094909455918416815260019091522054611eb09086611558565b6001600160a01b038216600090815260016020526040902055611ef6611ed760048a6125d4565b6001600160a01b03831660009081526002602052604090205490611558565b6001600160a01b0380831660009081526002602090815260409182902093909355518a815286821692918a16917fddf252ad1be2c89b69c2b068fc378daa952ba7f163c4a11628f55a4df523b3ef910160405180910390a35050505050505050565b611f7584611b1587611b158a600c5461163b90919063ffffffff16565b600c55600d54611f859084611558565b600d55600e54611f959083611558565b600e55600f54611fa59082611558565b600f55600b54611fb5908361163b565b600b55505050505050565b6001600160a01b038516600090815260016020526040902054611fe3908361163b565b6001600160a01b038087166000908152600160209081526040808320949094559187168152600290915220546120199084611558565b6001600160a01b038516600090815260026020908152604080832093909355600190522054611c819082611558565b80516a636f6e736f6c652e6c6f67602083016000808483855afa5050505050565b6001600160a01b03841660009081526001602052604090205461208c908361163b565b6001600160a01b0380861660009081526001602052604080822093909355908516815220546120bb9082611558565b60016000856001600160a01b03166001600160a01b03168152602001908152602001600020819055506114b36040518060400160405280601b81526020017f74686973206973205472616e7366657220746f2075736572203a200000000000815250826121fe565b6001600160a01b038616600090815260026020526040902054612146908561163b565b6001600160a01b038716600090815260026020908152604080832093909355600190522054612175908461163b565b6001600160a01b038088166000908152600160209081526040808320949094559188168152600290915220546121ab9083611558565b6001600160a01b0386166000908152600260209081526040808320939093556001905220546121da9082611558565b6001600160a01b039095166000908152600160205260409020949094555050505050565b610c1482826040516024016122149291906125f6565b60408051601f198184030181529190526020810180516001600160e01b03166309710a9d60e41b179052612048565b6000815180845260005b818110156122695760208185018101518683018201520161224d565b8181111561227b576000602083870101525b50601f01601f19169290920160200192915050565b6020815260006104c56020830184612243565b80356001600160a01b03811681146122ba57600080fd5b919050565b600080604083850312156122d257600080fd5b6122db836122a3565b946020939093013593505050565b6000806000606084860312156122fe57600080fd5b612307846122a3565b9250612315602085016122a3565b9150604084013590509250925092565b60006020828403121561233757600080fd5b5035919050565b6000806040838503121561235157600080fd5b823591506020830135801515811461236857600080fd5b809150509250929050565b60006020828403121561238557600080fd5b6104c5826122a3565b600080604083850312156123a157600080fd5b6123aa836122a3565b91506123b8602084016122a3565b90509250929050565b6000806000606084860312156123d657600080fd5b6123df846122a3565b92506123ed602085016122a3565b91506123fb604085016122a3565b90509250925092565b6020808252818101527f4f776e61626c653a2063616c6c6572206973206e6f7420746865206f776e6572604082015260600190565b634e487b7160e01b600052603260045260246000fd5b634e487b7160e01b600052601160045260246000fd5b6000828210156124775761247761244f565b500390565b634e487b7160e01b600052603160045260246000fd5b60006000198214156124a6576124a661244f565b5060010190565b600181815b808511156124e85781600019048211156124ce576124ce61244f565b808516156124db57918102915b93841c93908002906124b2565b509250929050565b6000826124ff575060016103d4565b8161250c575060006103d4565b8160018114612522576002811461252c57612548565b60019150506103d4565b60ff84111561253d5761253d61244f565b50506001821b6103d4565b5060208310610133831016604e8410600b841016171561256b575081810a6103d4565b61257583836124ad565b80600019048211156125895761258961244f565b029392505050565b60006104c583836124f0565b60008160001904831182151516156125b7576125b761244f565b500290565b600082198211156125cf576125cf61244f565b500190565b6000826125f157634e487b7160e01b600052601260045260246000fd5b500490565b6040815260006126096040830185612243565b9050826020830152939250505056fe42455032303a207472616e7366657220616d6f756e74206578636565647320616c6c6f77616e636542455032303a2064656372656173656420616c6c6f77616e63652062656c6f77207a65726fa26469706673582212205102d4c8059ceceb636e325c47d8aade61e3c865e702b6d1434c97d0a48e227664736f6c63430008090033",
  "linkReferences": {},
  "deployedLinkReferences": {}
}